{
  "contractName": "CarbonCredits",
  "abi": [
    {
      "inputs": [
        {
          "internalType": "uint256",
          "name": "",
          "type": "uint256"
        }
      ],
      "name": "credits",
      "outputs": [
        {
          "internalType": "uint256",
          "name": "amount",
          "type": "uint256"
        },
        {
          "internalType": "address",
          "name": "owner",
          "type": "address"
        }
      ],
      "stateMutability": "view",
      "type": "function",
      "constant": true
    },
    {
      "inputs": [],
      "name": "nextCreditId",
      "outputs": [
        {
          "internalType": "uint256",
          "name": "",
          "type": "uint256"
        }
      ],
      "stateMutability": "view",
      "type": "function",
      "constant": true
    },
    {
      "inputs": [
        {
          "internalType": "uint256",
          "name": "amount",
          "type": "uint256"
        }
      ],
      "name": "registerCredit",
      "outputs": [],
      "stateMutability": "nonpayable",
      "type": "function"
    },
    {
      "inputs": [
        {
          "internalType": "uint256",
          "name": "creditId",
          "type": "uint256"
        },
        {
          "internalType": "address",
          "name": "to",
          "type": "address"
        },
        {
          "internalType": "uint256",
          "name": "amount",
          "type": "uint256"
        }
      ],
      "name": "transferCredit",
      "outputs": [],
      "stateMutability": "nonpayable",
      "type": "function"
    }
  ],
  "bytecode": "0x608060405234801561001057600080fd5b50610797806100206000396000f3fe608060405234801561001057600080fd5b506004361061004c5760003560e01c8063036a1c2214610051578063131a027514610082578063cfc472151461009e578063fc00b798146100ba575b600080fd5b61006b60048036038101906100669190610421565b6100d8565b60405161007992919061049e565b60405180910390f35b61009c60048036038101906100979190610421565b61011c565b005b6100b860048036038101906100b391906104f3565b61020d565b005b6100c26103e0565b6040516100cf9190610546565b60405180910390f35b60006020528060005260406000206000915090508060000154908060010160009054906101000a900473ffffffffffffffffffffffffffffffffffffffff16905082565b6000811161015f576040517f08c379a0000000000000000000000000000000000000000000000000000000008152600401610156906105be565b60405180910390fd5b60405180604001604052808281526020013373ffffffffffffffffffffffffffffffffffffffff1681525060008060015481526020019081526020016000206000820151816000015560208201518160010160006101000a81548173ffffffffffffffffffffffffffffffffffffffff021916908373ffffffffffffffffffffffffffffffffffffffff160217905550905050600160008154809291906102059061060d565b919050555050565b3373ffffffffffffffffffffffffffffffffffffffff1660008085815260200190815260200160002060010160009054906101000a900473ffffffffffffffffffffffffffffffffffffffff1673ffffffffffffffffffffffffffffffffffffffff16146102b0576040517f08c379a00000000000000000000000000000000000000000000000000000000081526004016102a7906106a1565b60405180910390fd5b80600080858152602001908152602001600020600001541015610308576040517f08c379a00000000000000000000000000000000000000000000000000000000081526004016102ff9061070d565b60405180910390fd5b80600080858152602001908152602001600020600001600082825461032d919061072d565b9250508190555060405180604001604052808281526020018373ffffffffffffffffffffffffffffffffffffffff16815250600080600160008154809291906103759061060d565b9190505581526020019081526020016000206000820151816000015560208201518160010160006101000a81548173ffffffffffffffffffffffffffffffffffffffff021916908373ffffffffffffffffffffffffffffffffffffffff160217905550905050505050565b60015481565b600080fd5b6000819050919050565b6103fe816103eb565b811461040957600080fd5b50565b60008135905061041b816103f5565b92915050565b600060208284031215610437576104366103e6565b5b60006104458482850161040c565b91505092915050565b610457816103eb565b82525050565b600073ffffffffffffffffffffffffffffffffffffffff82169050919050565b60006104888261045d565b9050919050565b6104988161047d565b82525050565b60006040820190506104b3600083018561044e565b6104c0602083018461048f565b9392505050565b6104d08161047d565b81146104db57600080fd5b50565b6000813590506104ed816104c7565b92915050565b60008060006060848603121561050c5761050b6103e6565b5b600061051a8682870161040c565b935050602061052b868287016104de565b925050604061053c8682870161040c565b9150509250925092565b600060208201905061055b600083018461044e565b92915050565b600082825260208201905092915050565b7f416d6f756e74206d7573742062652067726561746572207468616e2030000000600082015250565b60006105a8601d83610561565b91506105b382610572565b602082019050919050565b600060208201905081810360008301526105d78161059b565b9050919050565b7f4e487b7100000000000000000000000000000000000000000000000000000000600052601160045260246000fd5b6000610618826103eb565b91507fffffffffffffffffffffffffffffffffffffffffffffffffffffffffffffffff820361064a576106496105de565b5b600182019050919050565b7f4e6f7420746865206f776e6572206f6620746865206372656469740000000000600082015250565b600061068b601b83610561565b915061069682610655565b602082019050919050565b600060208201905081810360008301526106ba8161067e565b9050919050565b7f4e6f7420656e6f7567682063726564697420616d6f756e740000000000000000600082015250565b60006106f7601883610561565b9150610702826106c1565b602082019050919050565b60006020820190508181036000830152610726816106ea565b9050919050565b6000610738826103eb565b9150610743836103eb565b925082820390508181111561075b5761075a6105de565b5b9291505056fea26469706673582212207a4303acaa81f2ebaddd27ec3cb73ce244360c395b01306319b6bdac0d6e7ddf64736f6c63430008130033",
  "immutableReferences": {},
  "source": "// SPDX-License-Identifier: MIT\r\npragma solidity ^0.8.0;\r\n\r\ncontract CarbonCredits {\r\n    struct Credit {\r\n        uint256 amount;\r\n        address owner;\r\n    }\r\n\r\n    mapping(uint256 => Credit) public credits;\r\n    uint256 public nextCreditId;\r\n\r\n    function registerCredit(uint256 amount) public {\r\n        require(amount > 0, \"Amount must be greater than 0\");\r\n        credits[nextCreditId] = Credit(amount, msg.sender);\r\n        nextCreditId++;\r\n    }\r\n\r\n    function transferCredit(uint256 creditId, address to, uint256 amount) public {\r\n        require(credits[creditId].owner == msg.sender, \"Not the owner of the credit\");\r\n        require(credits[creditId].amount >= amount, \"Not enough credit amount\");\r\n\r\n        credits[creditId].amount -= amount;\r\n        credits[nextCreditId++] = Credit(amount, to);\r\n    }\r\n}\r\n",
  "sourcePath": "C:\\Users\\sgs62\\Desktop\\cc\\contracts\\CarbonCredits.sol",
  "compiler": {
    "name": "solc",
    "version": "0.8.19+commit.7dd6d404.Emscripten.clang"
  },
  "schemaVersion": "3.4.16",
  "updatedAt": "2024-02-08T10:07:44.281Z",
  "networkType": "ethereum",
  "devdoc": {
    "kind": "dev",
    "methods": {},
    "version": 1
  },
  "userdoc": {
    "kind": "user",
    "methods": {},
    "version": 1
  }
}